:100000000C94E2050C94FF050C94FF050C94642EEF
:100010000C94FF050C94FF050C94FF050C94FF0550
:100020000C94FF050C94FF050C942A2B0C94022CC5
:100030000C94CC150C94FF050C94FF050C94FF0553
:100040000C94FF050C94FF050C94FF050C94FF0520
:100050000C94FF050C94062B0C94FF050C94FF05E3
:100060000C94FF050C94FF050C94FF050C94FF0500
:100070000C94FF050C94FF050C94FF050C94FF05F0
:100080000C94FF050C94FF050C94FF050C94FF05E0
:100090000C94FF050C94FF050C94FF050C94FF05D0
:1000A0000C94FF050C94FF050C94FF0500AF00AE07
:1000B0000000000000003E5B4F5B3E003E6B4F6B5C
:1000C0003E001C3E7C3E1C00183C7E3C18001C5729
:1000D0007D571C001C5E7F5E1C0000183C18000051
:1000E000FFE7C3E7FF00001824180000FFE7DBE785
:1000F000FF0030483A060E00262979292600407F65
:1001000005050700407F05253F005A3CE73C5A00A3
:100110007F3E1C1C0800081C1C3E7F0014227F220E
:1001200014005F5F005F5F0006097F017F000066CB
:1001300089956A0060606060600094A2FFA29400EC
:1001400008047E04080010207E20100008082A1CE5
:100150000800081C2A0808001E10101010000C1EB1
:100160000C1E0C0030383E383000060E3E0E0600E5
:1001700000000000000000005F0000000007000712
:100180000000147F147F1400242A7F2A12002313F6
:10019000086462003649562050000008070300003A
:1001A000001C224100000041221C00002A1C7F1C70
:1001B0002A0008083E080800008070300000080887
:1001C0000808080000006060000020100804020019
:1001D0003E5149453E0000427F4000007249494976
:1001E00046002141494D33001814127F1000274565
:1001F000454539003C4A4949310041211109070070
:10020000364949493600464949291E000000140074
:1002100000000040340000000008142241001414C3
:1002200014141400004122140800020159090600A8
:100230003E415D594E007C1211127C007F494949B4
:1002400036003E41414122007F4141413E007F490D
:10025000494941007F09090901003E4141517300AC
:100260007F0808087F0000417F4100002040413F97
:1002700001007F08142241007F40404040007F027F
:100280001C027F007F0408107F003E4141413E0078
:100290007F09090906003E4151215E007F091929A5
:1002A000460026494949320003017F0103003F40CF
:1002B00040403F001F2040201F003F4038403F008B
:1002C0006314081463000304780403006159494D62
:1002D0004300007F4141410002040810200000411A
:1002E00041417F00040201020400404040404000C0
:1002F0000003070800002054547840007F2844443D
:100300003800384444442800384444287F00385496
:100310005454180000087E0902001824241C780098
:100320007F080404780000447D4000002040403DE8
:1003300000007F102844000000417F4000007C0442
:10034000780478007C080404780038444444380079
:100350007C1824241800182424187C007C08040429
:10036000080048545454240004043F4424003C40F2
:1003700040207C001C2040201C003C4030403C00C1
:100380004428102844004C9090907C004464544CC5
:1003900044000008364100000000770000000041E2
:1003A000360800000201020402003C2623263C001D
:1003B000000000000000000000000000000000003D
:1003C000C0E0F0F8F81800C0F0FCFEFFFFFFFFFFF0
:1003D000FFFF7E00000000000000000080C0E0E0A1
:1003E000E0E0E0E0E0E0C0800000000080C0E0E08D
:1003F000E0E0E0E0E0E0C080000000E0E0C0C0E05D
:10040000E0E0E00000E0E0C0C0E0E0E0E0E0C0806C
:100410000000000080C0E0E0E0E0E0E0E0E0C0805C
:100420000000000000000000000000000000E0F0FC
:10043000F0F0E0ECEEF7F37020007C7C7C7E007E38
:100440007E7E7F7F7F000080C0E07E5B4F5BFEC0D2
:100450000000C000DCD7DEDEDED7DC00C00000001C
:10046000000000000000000000000000000000008C
:10047000000000000000000000F8FCFEFFE000FFAC
:10048000FFFFFFFFFF80FFFFFFFFFFFFFFFFFF1FDB
:100490000701000000000000000000FFFFFF8100D6
:1004A000000000000081C3C3C30000FFFFFF810004
:1004B000000000000081FFFFFF0000FFFFFF0100C0
:1004C0000000000000FFFFFF010000000001FFFF2F
:1004D000FF0000FFFFFF9D1C1C1C1C1C1C9DDFDF80
:1004E000DF000000000000000000000000000F1FFF
:1004F0003F7F7F7F7F7F3F1E0C001F1F1F3F003FFE
:100500003F3F7F7F7F00307B7F7830202030787FB7
:100510003B0003000F7F0F0F0F7F0F000300000051
:1005200000000000000000000000000000000000CB
:10053000000000000000000000030F1F3F3F3F3F8E
:100540001F1F3F3F7F7F7F3F3F1F3F7F7F7F7F7C1E
:100550007878381C0F000000000000000103070736
:10056000070707070707030100000000010307074B
:100570000707070707070301000000070707000038
:100580000000000000070707000000000000070748
:100590000700000001030707070707070707030114
:1005A000000000000000000000000000000000004B
:1005B000000000000000000000000000000000003B
:1005C000000000000000000000000000000000002B
:1005D000000000000000000000000000000000001B
:1005E000000000000000000000000000000000000B
:1005F00005010902A10185020901A10005091901EE
:1006000029081500250195087501810205010930A9
:1006100009311581257F95027508810609381581F4
:10062000257F950175088106050C0A38021581257C
:100630007F950175088106C0C005010980A101856B
:100640000319012AB700150126B70095017510811D
:1006500000C0050C0901A101850419012AA0021599
:100660000126A002950175108100C005010906A1AF
:10067000018506050719E029E7150025019508758C
:100680000181020507190029EF1500250195F07574
:100690000181020508190129059505750191029549
:1006A0000175039101C005010906A101050719E0C3
:1006B00029E7150025019508750181029501750846
:1006C00081010507190029FF150026FF0095067511
:1006D00008810005081901290515002501950575F2
:1006E000019102950175039101C009023B000201CD
:1006F00000A0FA0904000001030101000921110111
:1007000000012244000705810308000109040100DB
:10071000010300000009211101000122B6000705B4
:10072000820320000112010002000000085346016C
:10073000000100010200010C0343006F0072006E13
:100740000065000000100366006F006F0073007406
:100750000061006E000000040309042223252628FE
:10076000292A2C2D2F3032333536383A3B3D3E4046
:1007700042434547494A4C4E5051535557595A5C8C
:100780005E6062646668696B6D6F71737577797BA3
:100790007D7F81838587898A8C8E90929496989AA2
:1007A0009C9E9FA1A3A5A7A8AAACAEAFB1B3B4B6B7
:1007B000B8B9BBBCBEBFC1C2C3C5C6C7C9CACBCC12
:1007C000CDCED0D1D2D2D3D4D5D6D7D7D8D9D9DAE5
:1007D000DADBDBDBDCDCDCDCDCDDDDDDDDDCDCDC5A
:1007E000DCDCDBDBDBDADAD9D9D8D7D7D6D5D4D382
:1007F000D2D2D1D0CECDCCCBCAC9C7C6C5C3C2C157
:10080000BFBEBCBBB9B8B6B4B3B1AFAEACAAA8A7B3
:10081000A5A3A19F9E9C9A98969492908E8C8A896B
:10082000878583817F7D7B79777573716F6D6B6948
:1008300068666462605E5C5A5957555351504E4C1D
:100840004A4947454342403E3D3B3A3836353332CC
:10085000302F2D2C2A292826252322FFAA7F554018
:100860000001010101010101010102020202020273
:100870000202020303030303030303040404040446
:10088000040405050505050606060606070707070D
:100890000708080808090909090A0A0A0B0B0B0CC2
:1008A0000C0C0D0D0D0E0E0E0F0F0F10101111115F
:1008B00012121313141415151616171718181919E0
:1008C0001A1A1B1B1C1D1D1E1E1F20202122222345
:1008D0002424252626272829292A2B2C2D2D2E2F86
:1008E00030313232333435363738393A3B3C3D3E9D
:1008F0003F404142434445464748494A4C4D4E4F8C
:1009000050515354555658595A5B5D5E5F6162644D
:10091000656668696B6C6D6F7072737577787A7BDA
:100920007D7E8082838587888A8C8E8F9193959631
:10093000989A9C9EA0A2A3A5A7A9ABADAFB1B3B551
:10094000B7BABCBEC0C2C4C6C9CBCDCFD1D4D6D82D
:10095000DBDDDFE2E4E7E9EBEEF0F3F5F8FAFDFFCB
:1009600000DA0281FFD9F1DB20A4A62EAF00A0C0DF
:10097000D30000A1C8D30000AED580A81F408D14BD
:1009800020001E0F0500047F3F1F643214643214E0
:10099000783C1E1E140A05808182838485868788A0
:1009A000898A8B8C8D8E8F9091929394A0A1A2A313
:1009B000A4A5A6A7A8A9AAABACADAEAFB0B1B2B37F
:1009C000B4C0C1C2C3C4C5C6C7C8C9CACBCCCDCECA
:1009D000CFD0D1D2D3D4003A002C206B0078005570
:1009E0006E6465660041646A757374005261697370
:1009F00065004C6F7765720044656661756C7400C4
:100A00004C617965723A20001F021D001C00120023
:100A100018003400050006280C24082104223600A2
:100A200020020A001B000D000E002D000000000037
:100A3000000029432C412B42350014001A00070006
:100A40000F00340219001138163417310B323700F9
:100A5000380013000900100015002D0200000000EE
:100A600000004C432A4128420000000000003802E8
:100A700026022F0000001E281F24202121222200F0
:100A8000210231022E0035022E0233000000000048
:100A90000000294301002B420000000000001E025C
:100AA0002702300000002700260025002400230034
:100AB000310025022202240223023302000000003A
:100AC00000004C430100284200000000000000002C
:100AD000000000000000E300E200E000E100000090
:100AE0000000000000000000000000000000000006
:100AF000000029432C41010000007A007B007C00AB
:100B00005500790000004F0052005100500039009C
:100B100000004D004B004E004A004900000000005C
:100B200000004C432A410100000045004000410004
:100B300042004600000044003D003E003F004700E8
:100B4000000043003A003B003C0048000000000069
:100B5000000001002C412B420000000000000000BA
:100B6000000000000000E100E000E200E3000000FF
:100B70000000000000000000000000000000000075
:100B8000000001002A412842202020206162636485
:100B900065666768696A6B6C6D6E6F70717273748D
:100BA00075767778797A313233343536373839306B
:100BB000524542545F2D3D5B5D5C233B27602C2EEC
:100BC0002F20202011241FBECFEFDAE0DEBFCDBFE3
:100BD00027E0AAECB1E001C01D92A631B207E1F70F
:100BE00011E0A0E0B1E0EEEDF3E602C005900D9259
:100BF000AA3CB107D9F70E9457240C9486310C9473
:100C000000009093CE068093CD0608959093D00671
:100C10008093CF06089521E030E002C0220F331FF9
:100C20008A95E2F78091CF069091D006822B932B84
:100C30000E940606089521E030E002C0220F331F13
:100C40008A95E2F7209530958091CF069091D00655
:100C5000822393230E9406060895983090F58630EB
:100C600080F5E82FF0E086E0989FE00DF11D11245B
:100C70008E2F877041E001C0440F8A95EAF783E028
:100C8000F695E7958A95E1F7EE0FFF1FEE0FFF1F30
:100C9000E856F94F20E030E070E05191DF01CB01E0
:100CA000022E02C0969587950A94E2F7817081958D
:100CB0008527842385278E932F5F3F4F243031056E
:100CC00061F70895983078F5863068F5E82FF0E000
:100CD00086E0989FE00DF11D11249E2F977083E010
:100CE000F695E7958A95E1F7EE0FFF1FEE0FFF1FD0
:100CF000E856F94F40E050E080E0219130E0092EC5
:100D000002C0369527950A94E2F721703327042E06
:100D100001C0220F0A94EAF7822B4F5F5F4F4430E5
:100D2000510559F7089580E008958091D606909175
:100D3000D506981301C008958F5F8770FACF909100
:100D4000D106809589238093D106282F2770211101
:100D50000DC0891759F09091D30692FF07C0869570
:100D6000869586950E941B061092D1060895809163
:100D7000CA069091D406892B5091CB06511591F05B
:100D800090915301911521F09091D20697FD0BC0DF
:100D900096E02EEC31E040E0915048F44111109281
:100DA000CB06852B08959EE126ED31E0F4CFF901C5
:100DB00061919F01611581F34F5FEECF982F909560
:100DC0008091CA0689238093CA0608957830B8F4C2
:100DD0006630A8F48430B0F4E62FF0E096E0799F16
:100DE000E00DF11D112490E3899FE00DF11D112408
:100DF000EE0FFF1FE85FF54F85919591089580E014
:100E000090E0089581E0FCCF9C01803E910509F4BB
:100E100048C0D8F48133910509F47DC048F4893283
:100E2000910509F46DC08A9709F47CC0C901089541
:100E30008933910551F18238910539F1C597B1F7A0
:100E40008091D20685FFF2CF29C0843E910509F436
:100E500047C048F4823E910599F1833E9105A9F17E
:100E600021EE30E0E3CF863E910509F444C0873E91
:100E70009105E1F68091D20683FD61C09091D30681
:100E800091FF2BC024EE30E0D1CF8091D206837049
:100E9000811152C08091D30683FFC8CF29E230E090
:100EA000C5CF8091D20680FD33C09091D30690FFCC
:100EB000BDCF23EE30E084FFB9CF20E030E0B6CFE5
:100EC0008091D20682FDF5CFB1CF8091D20682FD0E
:100ED00030C09091D30690FD2FC084FFA7CFEDCFF7
:100EE0008091D30681FFA2CF8091D20627EE30E019
:100EF00084FDE3CF9BCF8091D20683FDF7CF96CFC1
:100F00008091D20685FD1EC08091D30683FF8ECFCF
:100F100029E330E08BCF8091D20686FF87CF2AE28B
:100F200030E084CF8091D20686FF80CF21E330E08D
:100F30007DCF22EE30E07ACF20EE30E077CF26EE84
:100F400030E074CF25E330E071CF9091D20692FF6C
:100F500010C041E0282F2471243009F040E031E036
:100F6000282F2871283009F030E0431711F02CE0C9
:100F7000822793FF10C041E0282F2471243109F00B
:100F800040E031E0282F2871283109F030E0431784
:100F900011F02CE082273091D30630FF10C051E0D1
:100FA000282F2171213009F050E041E0282F2871CD
:100FB000283009F040E0541711F029E0822731FF72
:100FC00010C041E0282F2171213109F040E031E0CB
:100FD000282F2871283109F030E0431711F029E05B
:100FE000822794FD877E08951F93CF93DF930E94FD
:100FF0000407EC01811522E5920708F055C0811520
:1010000040E5940708F0D1C0803E910520F58D3C65
:10101000910508F0A4C0883A910570F4853A9105CD
:1010200008F09AC081309105D1F10497813A910579
:10103000B0F1C0E0D0E033C0885A91094B97C8F7AF
:10104000C85AD0E0CC0FDD1FCC56DE4F0990D881B6
:10105000C02DD46424C0811550E49507C0F4C11597
:1010600080E2D80708F0B7C0C83ED105C0F0CE0175
:101070009A9581159F41E8F68D2F0E94A507182F9C
:10108000CE0199270E940407EC01D12B08C09927B3
:101090000E940407CC27DF70C82BD92BD06ACE0161
:1010A000DF91CF911F910895803842E59407C8F5EC
:1010B000803652E5950708F05BC0C03482E5D8075A
:1010C000D0F4C03292E5D90708F04BC08C2F86953A
:1010D000869520E2829FC0011124C37021E030E098
:1010E000A90102C0440F551FCA95E2F7EA01C82BB7
:1010F000D92BDD68D4CF8C2F86958695877050E2EA
:10110000859FC0011124C37021E030E0A90102C015
:10111000440F551FCA95E2F7EA01C82BD92BDC68AA
:10112000BECF803C52E5950758F48F71C03AD24546
:10113000A0F590E0982F8827EC01C46FD06AAFCF5C
:10114000805C9245809708F074CFDC2FCC27CC27A9
:10115000DF71C06FD06AA3CFA497D064A0CFD06551
:101160009ECFCF71D0E0DC2FCC27C16FD06A97CF54
:1011700086958695877020E2829FC0011124C370F6
:1011800021E030E0A90102C0440F551FCA95E2F7E3
:10119000EA01C82BD92BDA6882CF0E94A507C82F95
:1011A000D0E0DC2FCC27D0627ACF8F710E94A507C8
:1011B00093E0CC0FDD1F9A95E1F7CC27DF70282F45
:1011C00030E084FF04C050E1859F90011124C22BC0
:1011D000D32BD06964CF8D2F8F710E94A507182F54
:1011E000CE0199270E940407EC01D12BDCCFA0E0AF
:1011F000B0E0EDEFF8E00C949C2F8C01E090CF066E
:10120000F090D0068091CD069091CE06E82AF92A7A
:10121000CFE0D0E0CC24C394D12CC6010C2E02C068
:10122000880F991F0A94E2F78E219F21892B49F498
:10123000219798F7B12C8B2DCDB7DEB7E9E00C9450
:10124000B82FBC2EB8018C2F0E94E6060E94F4072E
:10125000019771F3F0CF0F931F93CF93FC0185811A
:1012600000811181811591F0611581F0C8010E9402
:10127000F708C82F682FC8010E942D06B8018C2FCF
:101280000E94E606CF911F910F910895C8010E9418
:101290006206C82FF3CFCF93DF93D82FC92F0E94B8
:1012A000F7086D2F7C2F0E94E6060E94F407DF915D
:1012B000CF910895FC0184818115A1F080819181F5
:1012C0000E944B09282F92959F70963099F060F4F8
:1012D000925F9F70923030F4203FB1F038F481E09B
:1012E000283E38F080E008959A5FF3CF81E0243FF4
:1012F000C9F7089591E0213F09F090E081E0283E90
:1013000008F080E0892B089581E0089580E0089539
:10131000F894E82FE295EF70F0E041A18F7021E0A2
:1013200030E0B90102C0660F771F8A95E2F7CB0162
:10133000962F9095942391A392A1892B82A37894C0
:1013400008950895AF92BF92CF92DF92FF920F93CC
:101350001F93CF93DF93F62EE901493708F048E752
:10136000E42FF0E0E05AF74FF11010C0E491BE2EE8
:101370002E2F2983E883BA82DF91CF911F910F919D
:10138000FF90DF90CF90BF90AF900895C82ED12CE2
:10139000AF2CB12C3491232F46E0849F800111247F
:1013A000EFEFF0E0C801BF010E947F2FCC0CDD1CE5
:1013B00045E5469FC001479F900D1124C81AD90AE0
:1013C0008C2D880FC80ECF018A199B095C013A9DAC
:1013D000C0013B9D900D1124B92EFC9CD00111241D
:1013E000AB2FBB27AF014A1B5B0BDA013A9FA00171
:1013F0003B9F500D1124DF01AC19B1096D01FC9C1C
:10140000D001FD9CB00D1124AB2FBB27EA1BFB0BB9
:101410003E9FD0013F9FB00D1124EB2F633071052B
:10142000C1F00C3F134058F461307105B1F06230E7
:10143000710509F09ECFE22F292FBB2E9ACF643081
:10144000710571F06630710509F493CFE92FB52E5F
:1014500090CF292FB32EE52F8CCFE22F252F89CFC8
:10146000E92FB22E2B2F85CF8091C206843060F4F5
:10147000837084608093C2068091C506893718F016
:1014800088E78093C50608958C3AB0F38370886A24
:10149000F1CF609113018091C20680FF0EC070E011
:1014A0002091120130E0C901880F991F820F931F0C
:1014B0008F5C9C4F0E94F40F0895809114019091CD
:1014C0001501282F30E0F901EE0FFF1FE20FF31F87
:1014D000EF5CFC4F891718F71182108212828F5F20
:1014E0003396F8CFEF92FF921F93CF93DF93EC01E7
:1014F00010E0EE24EA94F12C60911601161770F0BA
:101500000E94490A8C819A8190FF25C08F5F8C834D
:10151000DF91CF911F91FF90EF900895809114017A
:10152000810F9927991F9C01220F331F280F391F04
:101530002F5C3C4F70E0C7010E94E42F962F8C81F6
:101540004091C5066091C406199F800D11240E9428
:10155000A2091F5FD1CF8150DACFA0E0B0E0E3EB6A
:10156000FAE00C949A2FEC018A81BB24B39480FF9B
:1015700002C0BB24BA948C81A0901601811109C0CD
:1015800021E0B21202C08FEF8A0D8093300381E018
:101590008C83E12CF12CEA14B8F00E94490A909156
:1015A0003003E1E0BE1251C08091160181509115C7
:1015B00019F08FEF890F91E0809330039C83CDB7B2
:1015C000DEB7EBE00C94B62F809114018E0D9F2DA9
:1015D000911D8C01000F111F080F191F0F5C1C4F6C
:1015E000F80111821082128234E0C32ED12C912C8A
:1015F00080913003890D873324F166E30E94D62F52
:10160000892F082E001C00088E150F0489F44091C4
:10161000C5062C2D2403A0011124559547955595F9
:10162000479598016091C4068091C3060E94A20963
:101630009B0C81E0C81AD108D9F69FEFE91AF90A84
:10164000AACF87FFDECF8A0DDCCF892F90E00196ED
:101650006091160170E00E94E42F982FADCF0F9398
:101660001F93CF93DF93EC018C81811109C081E03E
:101670008C8310922F0392E09093060180930501D2
:101680001091140120911501812F90E0FC01EE0FC3
:10169000FF1FE80FF91FEF5CFC4F821750F100E0CD
:1016A00060911601061758F10E94490A80910501C0
:1016B00090912F03980F90932F0320910601280FEC
:1016C00020930601121654F4209116012150330B79
:1016D000092E001C00089217030634F081958093B0
:1016E0000501813009F41C82DF91CF911F910F9188
:1016F00008951182108212828F5F3396CECF202FF1
:1017000030E070E0C9010E94E42F810F90E0409129
:101710002F03FC01EE0FFF1FE80FF91F042E001C22
:10172000000824173005ACF040910601042E001C7F
:101730000008421703066CF09F012F5C3C4F40915C
:10174000C5066091C4068091C3060E94A2090F5F7E
:10175000A7CFEF5CFC4F118210821282F8CFA6E077
:10176000B0E0E5EBFBE00C949D2F8D839E83AD8173
:10177000BE811496FC912F2F30E0D9010E94773161
:101780009B01AC010E9442316B017C0180E290E040
:101790009C012F1B3109F901A5E5B0E0A7019601D5
:1017A0000E94423169837A838B839C839F01DF018E
:1017B0000E94FE2F9B010E9406309B01AC012C0D64
:1017C0003D1D4E1D5F1D69817A818B819C810E9428
:1017D0005531022F30E00A3248F5A901440F551F58
:1017E000420F531F55954795142F1095F12C85E501
:1017F000E82EE01A80911601F81630F10E94490A8D
:10180000AD81BE8114969C9181E0911519F09032C2
:1018100019F48FEF8093040180910401890FED8109
:10182000FE8184832696E8E00C94B92F85E590E04C
:10183000821B930BAC01440F551F480F591F57FFD4
:10184000D1CF4F5F5F4FCECF8E2DF1FC802F4091D7
:1018500014014F0D5527551F9A01220F331F240FD6
:10186000351F2F5C3C4F412F6091C4060E94A20996
:10187000F394C0CF0F931F93CF93DF93EC0100E05D
:1018800010E090911601091711056CF00E94490AA9
:101890008C8190E00196817099278C83DF91CF91A4
:1018A0001F910F91089580911401A801480F511DB7
:1018B0009A01220F331F240F351F2F5C3C4F4C81A0
:1018C0006091C4068091C3069695091711054CF4E2
:1018D000411549F04091C5060E94A2090F5F1F4FB4
:1018E000D0CF4115B9F340E0F7CF9091C20690FFF9
:1018F00011C09091140150911501292F30E0F90188
:10190000EE0FFF1FE20FF31FEF5CFC4F951718F06F
:101910000E94490A08958183608342839F5F3396C2
:10192000F5CFA3E0B0E0E7E9FCE00C94A12F8C0137
:1019300080912E0381110AC09E012F5F3F4F48E71F
:101940006FEF0E94A2098A8180932E03F8016481BF
:10195000613049F06230D1F080912E0340E0611592
:1019600031F040E015C060912E0340E080E00E941D
:10197000750CF801848190E0019663E070E00E94AC
:10198000E42F84832396E4E00C94BD2F40912E0332
:1019900080E060E0ECCFA3E0B0E0E1EDFCE00C948F
:1019A000A32F9091C20690FF0AC09E012F5F3F4F68
:1019B0000E94A2094B8169818A810E94750C23963D
:1019C000E2E00C94BF2FCF93DF93EC01E2ECF6E062
:1019D000438162818C810E94CB0C8C818F5F8C83D0
:1019E000DF91CF910895EFEBF6E011828281846060
:1019F00082830895CF93DF93EC01EC81F0E0E55A08
:101A0000F84F4491E2ECF6E0628181810E94CB0CB8
:101A10008C818F5F8C83DF91CF910895FA018115BE
:101A200011F009950895FB01FCCF539A0895282FD2
:101A300035EB2303C001112497FF04C0805891099E
:101A4000892F089580589F4FFBCF8091B20680FD6B
:101A500014C081FD14C082FD16C08091B1068115AD
:101A600081F08E3180F420E5829FC00111246EE167
:101A700070E00E94E42F862F089584E1089588E2A3
:101A8000089588E0089580E508958091B20680FD6C
:101A900017C081FD17C082FD19C08091B006811565
:101AA00099F0883298F428E0829FC001112468E2FE
:101AB00070E00E94E42F6115710551F0862F0895A2
:101AC00062E0FCCF64E0FACF61E0F8CF68E0F6CFE7
:101AD00081E0089580916A06811559F0E0918E06A3
:101AE000F0918F06309729F00190F081E02D099553
:101AF000089580E00895A3E0B0E0E1E8FDE00C94F3
:101B0000A32F9C0180911E0290911F0282179307C0
:101B1000A1F030931F0220931E02E0918E06F091F7
:101B20008F06309751F083E089833B832A830084BA
:101B3000F185E02DCE01019609952396E2E00C9403
:101B4000BF2FA3E0B0E0E7EAFDE00C94A32F9C01D7
:101B500080911C0290911D0282179307A1F030938F
:101B60001D0220931C02E0918E06F0918F063097A3
:101B700051F084E089833B832A830084F185E02D42
:101B8000CE01019609952396E2E00C94BF2F909127
:101B90005301911112C0AEECB1E0EFEF90E02D9146
:101BA000821751F0EF3F19F4211101C0E92F9F5F17
:101BB0009630A9F7EF3FC9F408959091D20697FFA8
:101BC000EACFE82FE695E695E695803FA8F7F0E0A6
:101BD000EC52FE4F877021E030E001C0220F8A9561
:101BE000EAF78281822B828308950E2E000CFF0B70
:101BF000E453FE4FF8CF90915301911521F090914D
:101C0000D20697FD0CC0EEECF1E09191891302C071
:101C1000DF011E9251E0E43DF507B9F70895E82F82
:101C2000E695E695E695803FC8F7F0E0EC52FE4F6A
:101C3000877021E030E0A90102C0440F551F8A954A
:101C4000E2F7CA01809592818923828308952FB794
:101C5000F89460914A0670914B0680914C069091E1
:101C60004D062FBF0895CF92DF92EF92FF928091A1
:101C70006A06811559F00E94270E6B017C01C7018D
:101C8000B601FF90EF90DF90CF9008950E94270E4D
:101C9000C0906606D0906706E0906806F0906906EE
:101CA000C60ED71EE81EF91EEACF87E797E7909386
:101CB00001088093000888E19AE00FB6F894A8958F
:101CC000809360000FBE90936000FFCF80911B0255
:101CD0000895FC019B0180911102909112028617D8
:101CE000970740F0672B29F48091E8008E77809366
:101CF000E800C90140E0009741F4411106C080911D
:101D0000E80082FF2FC080E008952091E0032115B4
:101D1000A9F12530A9F12091E80023FD2DC02091E3
:101D2000E80022FDECCF2091E80020FFE4CF3091C5
:101D3000F3002091F200009719F02830310558F097
:101D400041E02830310509F040E02091E8002E778D
:101D50002093E800D0CF41914093F10001972F5F8D
:101D60003F4FE9CF8091E003811541F0853041F08C
:101D70008091E80083FFC3CF81E0089582E0089559
:101D800083E0089580910B0287FF13C08091E800E3
:101D900082FF06C08091E8008B778093E800089569
:101DA0008091E0038111F2CF08958091E0038115C5
:101DB000D9F38091E80080FFF8CF8091E8008E771A
:101DC000ECCF2091E4003091E50095E6A901209147
:101DD000EC00822F817020FF06C08091E80080FF18
:101DE00006C080E008952091E80022FD1AC080918D
:101DF000E003811589F0853089F08091EB0085FD45
:101E00000FC02091E4003091E50042175307F9F22A
:101E10009A95E1F684E0089582E0089583E00895BC
:101E200081E00895E8EDF0E080818E7F808310925C
:101E3000E2001092DA001092E100A0EEB0E08C9186
:101E400081608C9380818F77808319BCA7EDB0E08F
:101E50008C918E7F8C9380818F7E808310920A027A
:101E60000895FC01AC014C5F5F4F8FEF61E39191EE
:101E7000892728E030E0982F990F87FF09C0892F24
:101E8000862721503040B9F7E417F50781F7089508
:101E9000892FF7CF982F9093E900891771F07091EF
:101EA000EC002091ED005091F00021FD09C09F5FF2
:101EB000973089F78093E9000895762F242F50E01A
:101EC0003091EB003E7F3093EB003091ED003D7F91
:101ED0003093ED003091EB0031603093EB00709364
:101EE000EC002093ED005093F0002091EE0027FDD0
:101EF000DECF0895A0E0B0E0E0E8FFE00C949D2F75
:101F0000C8EDD0E088818F7E8883E7EDF0E08081A6
:101F10008160808384E082BF81E080930A028881AF
:101F20008E7F888302EE10E0F80110821092DA00B2
:101F300081EEC82ED12CF601108288818F7788839C
:101F400088818068888388818F7D888319BC1092FE
:101F5000E003109209021092DF031092080290EE43
:101F6000E92EF12CF70180818B7F8083888181604D
:101F7000888342E060E080E00E944A0FF6018081A1
:101F80008E7F8083F801808181608083808188607A
:101F90008083F70180818E7F808388818061888340
:101FA000CDB7DEB7E8E00C94B92FE091D60690915A
:101FB000D50627E0E91302C080E00895AE2FB0E017
:101FC0002E9FF0011124E952F94F3181361306C0DA
:101FD0003081381303C03581341304C0FD013196BC
:101FE000E770E8CF81E008959C01FB014BB1477F8A
:101FF0005BB158606FB7F894CF01880F991F8E0FAF
:102000009F1F820F931F2817390741F46FBF8FE579
:1020100094E00197F1F700C000000895F901719173
:102020009F01E8E05BB9000000C077FF4BB9770F74
:10203000000000C000C000C04BB900C0EA9591F795
:10204000E2CF0F931F93CF93DF938B01EA0190911F
:10205000E003943059F58093E9008FEF9091E80008
:1020600095FD06C095ED9A95F1F700008A95B1F7B8
:102070008091E80085FF1AC00E94E10E811111C015
:102080008091E80085FD06C08091E8008E778093FE
:10209000E800F2CFF80181918F018093F100219740
:1020A00079F78091E8008E778093E800DF91CF91F7
:1020B0001F910F910895CF93DF93D82FC92F48E038
:1020C00050E0682F792F81E00E94211088E0ED2FE9
:1020D000FC2FA3E1B2E001900D928A95E1F7DF9128
:1020E000CF910895BC0140E250E082E00E942110AF
:1020F0000895BC0146E050E082E00E94211008955E
:10210000BC0143E050E082E00E9421100895A0E06D
:10211000B0E0EDE8F0E10C949B2F182F092FB62EBC
:10212000A72E7A018091FE019AE0C92ED12C8A3027
:1021300018F0CC24C394D12CC1E0D0E06B2D7A2DC3
:10214000812F902FF7010995811116C02196CC1689
:10215000DD0694F0CC9FC001CD9F900D900D112411
:1021600020E030E045E34A95F1F700002F5F3F4F54
:1021700028173907B9F7E2CFCDB7DEB7EAE00C94FC
:10218000B72F9091D30692FB222720F9281779F0D8
:1021900080FB92F99093D3066091D2067091D3069A
:1021A00084E090E00E940D3182E00E949F06089535
:1021B00080915301811559F18091D20687FF27C084
:1021C0000E94B7068093D50140E250E06EE676E0CB
:1021D00084ED91E00E94B530892BC1F080E2E4EDFE
:1021E000F1E0AEE6B6E001900D928A95E1F7E0915C
:1021F0008E06F0918F06309749F086E08093D401E7
:102200000480F581E02D84ED91E0099508950E9408
:10221000B7068093CC0148E050E060E976E08CECB2
:1022200091E00E94B530892B89F388E0ECECF1E075
:10223000A0E9B6E001900D928A95E1F7E0918E0653
:10224000F0918F06309711F30280F381E02D8CEC32
:1022500091E0DBCF811539F09091CA06892B8093EC
:10226000CA060E94D8100895811521F00E94DE064A
:102270000E94D8100895A4E0B0E0E1E4F1E10C94EC
:10228000A22F40913A0650913B0660913C06709116
:102290003D062FB7F89480914A0690914B06A09185
:1022A0004C06B0914D062FBF841B950BA60BB70BA8
:1022B00011E084369105A105B10578F10E94330E35
:1022C000DC01CB010296A11DB11D89839A83AB83EA
:1022D000BC838091440190914501825B994F20918C
:1022E0004301422F50E0253010F044E050E0BE01A1
:1022F0006F5F7F4F0E94C23083E090E00E940B2FFF
:10230000182F811551F00E94270E60933A067093A2
:102310003B0680933C0690933D06812F2496E3E094
:102320000C94BE2FA0E0B0E0E8E9F1E10C949D2F01
:10233000E82FEB01B901D801C880D980EA80FB8081
:102340008FB7F89400914A0610914B0620914C06E5
:1023500030914D068FBF0C191D092E093F09043617
:1023600011052105310510F4411511F10E2F0E2E26
:10237000000C110B88E0E802F0011124E55DFE4F2E
:1023800081819281825B994F2081422F50E0A21778
:10239000B10508F4AD010E94C230C8010E940B2FA4
:1023A000811539F00E94270E688379838A839B8385
:1023B00081E0CDB7DEB7E8E00C94B92F0F931F93FF
:1023C000CF93DF93D82FC92F44E050E063E576E048
:1023D0000E94B53041E0892B09F440E004E010E0B0
:1023E0002D2F3C2F6EE376E082E00E949211DF9168
:1023F000CF911F910F910895ABE0B0E0E2E0F2E1E0
:102400000C94A12F28E0E2ECF6E0CE010196DC016D
:1024100001900D922A95E1F73091BF062091C006F8
:102420005091C10639872A875B8741E09C01511191
:1024300001C040E00BE010E066E376E084E00E943B
:10244000921181111092C1062B96E4E00C94BD2FDD
:10245000EF92FF921F93CF93DF9300D000D00F92A3
:10246000CDB7DEB77B0180E090E00E940B2F182FE4
:10247000811509F46DC080912E01482F50E081151F
:1024800011F041E050E060912F0170913001625BEA
:10249000794FCE0105960E94C23040914606509178
:1024A000470660914806709149062FB7F8948091CD
:1024B0004A0690914B06A0914C06B0914D062FBF55
:1024C000841B950BA60BB70B84369105A105B105AE
:1024D00038F48FE496E00E94310F9D818917C1F195
:1024E00081E090E00E940B2F811509F43FC080919C
:1024F0003601482F50E0853010F044E050E0609104
:10250000370170913801625B794FCE0101960E94CC
:10251000C2308FE496E00E94310F9D81891326C05E
:102520000E94270E609346067093470680934806E4
:102530009093490689819A81AB81BC818093420640
:1025400090934306A0934406B093450681E00FC0E4
:1025500080914F0690915006A0915106B09152067D
:1025600089839A83AB83BC831111E4CF80E04091CF
:102570004206509143066091440670914506F7016A
:1025800040835183628373830F900F900F900F905D
:102590000F90DF91CF911F91FF90EF900895A0E0F1
:1025A000B0E0E5EDF2E10C94952FFC0162804480EF
:1025B00081E08483EBE5F7E07490EAEDF7E0E491E5
:1025C000C091C506C695C158D0E0CC0FDD1FCD2FF8
:1025D000DD27812C75E0972EAA24AA94B12C5524CE
:1025E0005A94E719EE2EF12C80911601881638F0D6
:1025F0000E94490ACDB7DEB7E0E10C94B12FC82C98
:10260000D12C83E0681658F4989CF0011124E05E08
:10261000FD4F8091C30680838091C4068183411061
:1026200023C09C9CF0019D9CF00D1124E05EFD4FA9
:1026300013821282809114018C0D9D2D911D9C019D
:10264000220F331F280F391F2F5C3C4F9C9CF00139
:102650009D9CF00D1124E05EFD4F428161818081DF
:102660000E94A2098394C0CF9C9C80019D9C100D68
:102670001124005E1D4FF80183818115F1F0815016
:102680008383589EC0011124648170E00E947F2FD3
:10269000FB01FF27E55AF84F8491E82FE7195E9E6A
:1026A000C0011124B7010E947F2F8091C506689F49
:1026B000B0011124F8017283BDCF0E948F30B501A3
:1026C0000E94E42F8C179D070CF0B4CFF3E06F1637
:1026D00098F00E948F30B5010E94E42FF8018083AA
:1026E0000E948F302091C4062695622F70E00E94D0
:1026F000E42F280FF80121839C9CF0019D9CF00D94
:102700001124E05EFD4F12828091C506893C58F08D
:1027100088EC9C9CF0019D9CF00D1124E05EFD4F27
:102720008483838387CF8431A0F784E1F2CFA0E054
:10273000B0E0EDE9F3E10C949D2F8901D42FC52F72
:102740006B017C010E94340AA8016D2F7C2F88E068
:1027500090E00E94013198014D2F5C2FB601C70116
:1027600000E20E942830622F83E290E00E94EF3066
:10277000CDB7DEB7E8E00C94B92F8091C606833060
:1027800018F48F5F8093C6062091C2063091C3066D
:102790004091C4065091C5066091C6067091C70667
:1027A0008091C8069091C9060E9497130895809160
:1027B000C606811519F081508093C6062091C20685
:1027C0003091C3064091C4065091C5066091C6067B
:1027D0007091C7068091C8069091C9060E94971310
:1027E0000895A3E0B0E0E7EFF3E10C949C2F082FED
:1027F000E62EF42EC22E9091C20690FF41C0309179
:10280000C306381308C08091C406861304C08091A3
:10281000C506841729F08091C10682608093C106A5
:10282000E92FE695E695AE2FB0E0AB5ABE4F8C91FE
:102830008093BF069C7F943039F59E012F5F3F4FF8
:102840004F2D6E2D802F0E94A2094B8169818A81B4
:102850000E94750C302F3093C306E092C406F092AC
:10286000C506C11469F02091C2066091C606709138
:10287000C706A7018091C8069091C9060E949713C8
:102880002396E9E00C94B82F823019F4F090C50635
:10289000E1CF863001F38930F1F28931D9F6E9517F
:1028A0008E2F8170B82EE695F0E0E55AF74F14911F
:1028B000D12C60911601D61618F00E94490ACACF91
:1028C000D19EC001112470E00E947F2F802FB11093
:1028D00013C0860F409114014D0D5527551F9A01C5
:1028E000220F331F240F351F2F5C3C4F4F2D6E2DB1
:1028F0000E94A209D394DDCF861BECCFE2ECF6E078
:10290000818121E043816281865F0E94F1130895F5
:10291000E2ECF6E0818121E0438162818A500E94ED
:10292000F1130895E2ECF6E0628121E1620F08F410
:102930006FEF21E0438181810E94F1130895E2EC61
:10294000F6E0628121E1621B08F460E021E043814E
:1029500081810E94F1130895E2ECF6E0438121E1C8
:10296000420F08F44FEF21E0628181810E94F11350
:102970000895E2ECF6E0438121E1421B08F440E0D7
:1029800021E0628181810E94F1130895AB0124E668
:1029900030E0BC0188E70E94272D9C0181E0232BB9
:1029A00009F080E0089580913006811569F08091EA
:1029B0002D06811549F062E070E08EEA90E00E94F9
:1029C000C614811110922D0608958091300681154C
:1029D000F9F00E94270EDC01CB01805A9541AF4FE0
:1029E000BF4F8093290690932A06A0932B06B0939D
:1029F0002C0680912D0681110BC062E070E08CEAFC
:102A000090E00E94C614811519F081E080932D0694
:102A10000895CF93DF93682F81E06A3019F06D300D
:102A200031F480E00E948915DF91CF910895809163
:102A3000FB039091FC0326E0FC01A1E0B2E00190D1
:102A40000D922A95E1F7603E08F458C026E0FC019B
:102A500011922A95E9F7C091FB03D091FC0346E05F
:102A600050E0BE0181E092E00E94B5309E01255207
:102A70003440892B41F1C90145E0969587954A95E7
:102A8000E1F741E050E0BA0102C0660F771F8A9576
:102A9000E2F7CB016091270670912806862B972BD1
:102AA000B9016B5F7F4FE5E076956795EA95E1F7B1
:102AB00002C0440F551F6A95E2F7842B952B909323
:102AC0002806809327062A5F3F4F4091FD03642F1D
:102AD00070E0C9010E947F2F481B463010F4240F7C
:102AE000311D211572E0370710F020E030E02B5D3A
:102AF0003B4F3093FC032093FB0396CFF6E06F9F90
:102B0000B001112460557F4F46E050E00E949F3095
:102B1000A2CFCF93382FE091FB03F091FC03E55255
:102B2000F4402091FD03622F70E0CF010E947F2FBF
:102B3000281B822F311561F066E00E94CA2FC82F32
:102B4000C15010F4CF91089580E20E940915F8CF8A
:102B50008E0F9F2F911D811522E0920710F080E0CB
:102B600090E08B5D9B4F9093FC038093FB03EACF37
:102B7000CF93DF93EC01FE018491811103C0DF91BB
:102B8000CF9108950E9409152196F5CF0E94B8159E
:102B900081E00E94891508951F921FB61F9211248B
:102BA0008F939F93AF93BF938091DE03811113C0E6
:102BB00080914A0690914B06A0914C06B0914D062B
:102BC0004196A11DB11D80934A0690934B06A09398
:102BD0004C06B0934D06BF91AF919F918F911F907E
:102BE0001FBE1F9018952FB7F89480914A069091B8
:102BF0004B06A0914C06B0914D062FBF0895CF9380
:102C0000DF9380916A06811529F00E94F315DF9108
:102C1000CF9108950E94330EEB01862F9D2FF7CFA1
:102C20006091C2066695669570E04BE050E087E0E3
:102C300091E00E94A830892B19F481E08093C006AE
:102C40000E94FF159093F6038093F5038091C106CF
:102C500084608093C10608959091C20690FF42C09F
:102C6000811509F440C08B3208F03FC08F73282FC4
:102C7000220F220F8091C2068370282B2093C20658
:102C80008091C10681608093C106611581F0309109
:102C9000C3064091C4065091C5066091C606709166
:102CA000C7068091C8069091C9060E94971360914B
:102CB000C2066695669570E04BE050E087E091E0D3
:102CC0000E94A830892B99F00E94F30C81E0809338
:102CD000F80320E04091C5066091C4068091C306C8
:102CE0000E94F113089581E0C2CF8AE2C0CF0E9412
:102CF0001016ECCF8091C206869586958F5F8B3239
:102D000008F081E061E00E942C1608958091C206CF
:102D1000869586958A9509F48AE261E00E942C16D0
:102D200008959091C20690FF09C0969596959817C0
:102D300028F0961718F40E947A16089561E00E9410
:102D40002C1608950E94F3152091B5063091B60611
:102D5000232B211521F08093330690933406209184
:102D6000B7063091B806232B211521F08093310648
:102D700090933206E0918E06F0918F06309749F0DD
:102D800082E08093B3060680F781E02D83EB96E026
:102D9000099508952091B5069091B8063091B7062F
:102DA000611509F458C04091B606242B292B232B1A
:102DB000211531F098E09093B10691E09093B00620
:102DC000E3E3E80FE33150F4F0E0E857FE4C0C94F5
:102DD000F82F0E94250D81958093B6060E94A216B9
:102DE00008950E94250DF8CF0E94250D81958093AE
:102DF000B506F4CF0E94250DFACF0E94450D8093B1
:102E0000B706ECCF0E94450D8195F9CF0E94450D84
:102E100081958093B806E2CF0E94450DFACF815D7F
:102E2000990B21E030E001C0220F8A95EAF78091EA
:102E3000B406822B8093B406D1CF8091B206816014
:102E40008093B206CBCF8091B2068260F9CF809199
:102E5000B2068460F5CF8D3C59F48091B60687FFA9
:102E60000DC01092B606211559F41092B10608C093
:102E70008E3C81F48091B60618169CF3211581F0E2
:102E80008091B7069091B806892B8111A7CF109237
:102E9000B006A4CF8F3C41F427FFF0CF1092B506C7
:102EA0008091B6068115E0CF803D19F41216B4F377
:102EB000E5CF893D29F413160CF71092B706DECF43
:102EC0008A3D19F437FFDACFF8CF8B3D29F497FF0D
:102ED000D5CF1092B806D2CF8C3D19F41916CCF389
:102EE000CDCF9FE2980F983090F4815D990B41E02F
:102EF00050E0BA0102C0660F771F8A95E2F7CB0156
:102F000080959091B40689238093B406B7CF8D3D08
:102F100031F48091B2068E7F8093B206AFCF8E3DA2
:102F200021F48091B2068D7FF7CF8F3D09F0A6CFB7
:102F30008091B2068B7FF0CFCF93C82F8115D9F047
:102F40008CEF8C0F813AA8F580915301811521F007
:102F50008091D20687FD11C0EEECF1E084ED91E0A6
:102F60002191C21701F18E179F07D1F78C2F0E9474
:102F7000C70D0E94D810CF910895EC2FE695E695E5
:102F8000E695F0E0EC52FE4F828190E04C2F4770C6
:102F900021E030E002C0220F331F4A95E2F782237E
:102FA0009323892B19F38C2F0E94FB0D0E94D810BC
:102FB000DDCF80E28C0F883068F4C77081E090E04C
:102FC00001C0880FCA95EAF7C091CA06C82BC09302
:102FD000CA06CFCF8BE58C0F833038F42C2F2452C8
:102FE000330BC9010E947B0DC6CFE8E5EC0FEB3136
:102FF00050F4F0E0EE0FFF1FEC56FE4F8081918100
:103000000E94A10DB8CF83E38C0F833108F0B3CFBA
:1030100061E08C2F0E94CA16AECF811581F19CEF22
:10302000980F913A28F40E94FB0D0E94D810089541
:1030300090E2980F983050F4877091E001C0990F9A
:103040008A95EAF7892F0E94DE06EFCF9BE5980F5D
:10305000933028F480E090E00E947B0D089598E57D
:10306000980F9B3128F480E090E00E94A10D089514
:1030700093E3980F933118F460E00E94CA16089504
:103080001092CA0680915301811539F18091D206C0
:1030900087FF23C0E6EDF1E08EE1DF011D928A9506
:1030A000E9F780E090E00E947B0D80E090E00E94D4
:1030B000A10D1092D4060E94D81086E0E3EBF6E052
:1030C000DF011D928A95E9F71092B1061092B006C1
:1030D0001092B2060E94A2160895EEECF1E086E08E
:1030E000DCCF0E9440182FEF84E39CE02150804009
:1030F0009040E1F700C0000088E19AE00FB6F89434
:10310000A895809360000FBE90936000FFCFAAE265
:10311000B0E0EDE8F8E10C94A22F8BE092E0FC0126
:1031200001962091F100208322E083319207B9F7C4
:1031300080910C02893009F456C0C8F4823009F439
:10314000B2C0833009F481C0813071F18091E80010
:1031500083FFE6C080910B0290910C029A3008F038
:10316000DFC0E92FF0E0E556FE4C0C94F82F8A30D2
:1031700009F488C08B3051F780910B02813231F70E
:1031800080910F0290911002892B01F78091E80045
:10319000877F8093E8000E94C20E80910D02809389
:1031A00053010E944018D2CF80910B02813A71F6F0
:1031B0008091E800877F8093E80080910F029091D2
:1031C0001002892B61F060E080E090E070E00E94E6
:1031D000690E8091E8008B778093E800B7CF68E0B4
:1031E00083E192E0F3CF80910B02813209F0AECF00
:1031F00080910F0290911002029708F0A7CF809162
:10320000E800877F8093E8008091E80082FF18C083
:103210009091F3008091F200029731F48091F100D7
:10322000813011F0863021F48091F10080931B02EF
:103230008091E8008B778093E8000E94C20E86CFD1
:103240008091E0038111E0CF81CF80910B02813A20
:1032500009F07CCF80910F0290911002892B09F028
:1032600075CF8091E800877F8093E8008091E80027
:1032700080FFFCCF809153018093F1008091E800A2
:103280008E77D9CF80910B02813209F05FCF809188
:10329000E800877F8093E8000E94C20E80910E02B2
:1032A0008093070253CF80910B02813A09F04ECFF1
:1032B0008091E800877F8093E8008091E80080FF9C
:1032C000FCCF80910702D8CF803889F0823841F551
:1032D00080910F028F70873018F58093E9008091FC
:1032E000EB0085FB882780F91092E90006C08091E9
:1032F000DF03880F90910802892B9091E800977F57
:103300009093E8008093F1001092F1008091E80022
:103310008E7723C0811116C080910D02813011F18A
:103320008091E80083FF0AC08091E800877F809346
:10333000E8008091EB0080628093EB00AA96E3E0C6
:103340000C94BE2F823061F780910D02811589F0B7
:103350001092E9008091E800877F8093E8000E9446
:10336000C20EDECF81E0933009F080E08093DF036E
:10337000EFCF80910F028F702FEF280F263080F64D
:103380008093E9002091EB0020FFE2CF933031F4ED
:103390008091EB0080628093EB00DACF9091EB009C
:1033A00090619093EB0021E030E0A90102C0440F4E
:1033B000551F8A95E2F74093EA001092EA00809147
:1033C000EB008860E8CF8111ABCF10910D021F7721
:1033D0008091E3008078812B8093E3008091E80066
:1033E000877F8093E8000E94C20E8091E80080FFF2
:1033F000FCCF8091E30080688093E30083E01111AB
:1034000001C082E08093E0038BCF8058823008F0C7
:1034100087CF20910D0230910E022C3D53E03507ED
:1034200099F583E08A838AE289834FB7F894DE01B5
:10343000139620E03EE051E2E32FF0E05093570076
:10344000849120FF03C082958F703F5F8F708A3018
:10345000C8F0895C90E08D939D932F5F243161F7D4
:103460004FBF8091E800877F8093E8006AE270E0B8
:10347000CE0101960E94690E8091E8008B778093BF
:10348000E8004ECF805DE6CF832F992783309105EA
:1034900029F160F48130910509F475C0029709F0B3
:1034A0003FCF8BE390E0EAEEF6E02CC020910F02D4
:1034B000309110028132910509F459C0829709F0C8
:1034C0002FCF2115310509F468C02130310509F0ED
:1034D00027CF86EB90E0E0EFF5E014C0C901992713
:1034E0002130A9F182309105D1F1892B09F018CF53
:1034F000E7E5F7E0E4918E2F90E0E7E5F7E000974D
:1035000009F40ECF2091E800277F2093E800209156
:103510001102309112028217930708F49C0140E0D7
:103520002115310509F03EC041113CC08091E800F1
:1035300082FDA2CF8091E003811509F49DCF8530F3
:1035400009F49ACF8091E80083FFF0CF95CFE5E4AE
:10355000F7E0E4918E2F90E0E5E4F7E0D0CFE7E3E9
:10356000F7E0E4918E2F90E0E7E3F7E0C8CF211574
:10357000310571F02130310509F0D2CE89E090E0BB
:10358000E5E1F7E0BFCF82E190E0E5E2F7E0BACF16
:1035900089E090E0ECEFF6E0B5CF84E490E0E6EA75
:1035A000F6E0B0CF8091E003811509F465CF853056
:1035B00009F462CF8091E80083FD5ECF8091E8003E
:1035C00082FDB4CF8091E80080FFAACF9091F300F4
:1035D0008091F2002115310519F08830910550F0E5
:1035E00041E0089709F040E08091E8008E778093F1
:1035F000E80096CF44914093F10031962150310973
:103600000196E8CF803809F08BCE8091E800877F63
:103610008093E800809109028093F10077CE8111B8
:103620007FCE10910D02123008F07ACE8091E80022
:10363000877F8093E800109309020E94C20E111543
:1036400081F084E08093E00342E061EC81E00E943D
:103650004A0F42E261EC82E00E944A0F8091E0034F
:103660005FCE8091E30087FDECCF81E0EBCF9C0142
:103670004FB7F89480914A0690914B06A0914C0662
:10368000B0914D064FBF821B930B0895FF920F938D
:103690001F93CF93DF93C62FD42F122F8115A9F03C
:1036A0006093BD060E94F315909300028093FF0182
:1036B000C77081E001C0880FCA95EAF70E942A11FD
:1036C000CDB7DEB7E5E00C94BC2F8091BD06681342
:1036D00033C08091FF01909100020E94371B883C0B
:1036E000910550F500E20D0FCD17A9F0C770FF242A
:1036F000F3948F2D01C0880FCA95EAF70E94341108
:10370000083048F48D2F877001C0FF0C8A95EAF7C6
:103710008F2D0E942A11812F0E949C17812F0E94B9
:103720000D18083068F6D77081E001C0880FDA956F
:10373000EAF70E943411C4CFC77081E001C0880F3E
:10374000CA95EAF7F6CFA0E0B0E0E9EAFBE10C9415
:103750009D2F7C01FC018481811509F477C061E013
:10376000C7010E942B09EC01F7018581811509F43D
:103770006DC491819093BC0690819093BB0690E2BA
:1037800090935401D093BA06C093B9069E0130526B
:103790002115304218F5F7019681903128F0FE018D
:1037A000FF27ED33F10570F11092BD06CE01905761
:1037B000839708F060C484E090E00E94D930909331
:1037C000D3068093D206FE01E150F047E232F105C4
:1037D00008F058C0EB55FE4C0C94F82F9E01305465
:1037E00021153041C0F29E013A9521153F41B8F2B2
:1037F0009E01205A324520323105B0F2CD33D10539
:1038000030F4FE01E857F44FE491E0935401FE01D7
:10381000E851FC47E730F10538F6E953FE4C0C94CB
:10382000F82F26E241EE61EE0E94461B8091D10600
:103830008770811559F0F7018581811539F08091E4
:10384000D30682FF03C082E00E949F06CDB7DEB799
:10385000E8E00C94B92F27E245EE65EEE5CF26E2CD
:1038600041EE60EEE1CF27E245EE64EEDDCF26E2E9
:1038700041EE62EED9CF27E245EE66EED5CF28E2E3
:1038800041E0EBCF8091D20681608093D2066091B7
:10389000D2067091D30684E090E00E940D310E9420
:1038A0004018C4CF8091D30688608093D306EFCFB1
:1038B0008091D2068260E9CF8091D2068460E5CF04
:1038C0008091D2068860E1CF8091D3068160EDCFF0
:1038D0008091D3068260E9CF8091D2068061D5CFF6
:1038E0008091D2068062D1CF8091D2068064CDCF04
:1038F0000E9440188091D2068068C7CF8091D2067E
:103900008C60C3CF8091D3068360CFCF8091D206E5
:103910008E7FBBCF8091D306877FC7CF8091D206A1
:103920008D7FB3CF8091D2068B7FAFCF8091D206AF
:10393000877FABCF8091D3068E7FB7CF8091D306A0
:103940008D7FB3CF8091D2068F7E9FCF8091D2069C
:103950008F7D9BCF8091D2068F7B97CF0E9440189E
:103960008091D2068F7791CF8091D206837F8DCFC1
:103970008091D3068C7F99CF8091D206992782FFC0
:10398000939590FB82F990FB83F97FCF8091D306CA
:10399000982F909590FB80F990FB81F986CF9091BC
:1039A000D206892F8F7B96FF80646FCF0E944018CC
:1039B0009091D206892F97FB87F9805866CF61E0F6
:1039C0008EE090E00E94EF3062CF60E0F9CF9091FE
:1039D000D206892F8F7E94FF806157CF9091D206B7
:1039E000892F8E7F90FF816050CF9091D306892FD1
:1039F000877F93FF886059CF89E24FC389E238C33C
:103A0000CA353CE7D30709F08FC081E0F8C0809148
:103A1000CA068272FE01E052F847E531F10508F06E
:103A200093C0E253FE4C0C94F82F8091C20680FFA5
:103A30001EC0282F2E7F2093C2063091C3064091CE
:103A4000C4065091C5066091C6067091C706809164
:103A5000C8069091C9060E9497130E94F30C8091AA
:103A6000C10681608093C1060E94490ADFCE816051
:103A70008093C20661E0869586950E942C16D6CE6C
:103A800046E856E16AE776E10E940E0DCFCE4AE79E
:103A900056E166E876E1F8CF48E854E16EE774E174
:103AA000F3CF4EE754E168E874E1EECF4FE954E11B
:103AB00062E974E1E9CF42E954E16FE974E1E4CFEE
:103AC00049EB54E16CEA74E1DFCF4CEA54E169EB75
:103AD00074E1DACF47ED53E16DEB73E1D5CF4DEBF8
:103AE00053E167ED73E1D0CF61E081E0C6CF65E0DF
:103AF00082E00E9491169ACE68E086E0FACF6EE0EE
:103B000089E0F7CF64E18FE0F4CF67E185E1F1CFA1
:103B100061E088E1B2CF62E289E1EBCF61E083E26C
:103B2000ACCF6AE285E2E5CF08F05BC0C1309CE72C
:103B3000D90709F47AC0C330ECE7DE0709F46FC097
:103B4000C115DC4709F45EC0F70185810081118150
:103B5000811509F46EC0C8010E94F708C82F682FAC
:103B6000C8010E942D06B8018C2F0E94E6060E9413
:103B7000F407D82FC92FF701D580C680C2948FE0F3
:103B8000C8228091D10687708115F9F00D2DD114CE
:103B9000E9F0892F807F803461F080E28D0F8830DA
:103BA000A0F0892F807E803221F4D23070F0C114D1
:103BB00061F08091D30682FF08C082E00E949F06D8
:103BC0008091D106877001E0811100E0EC2FE29531
:103BD000EF70C03C08F093C0F0E0ED51FE4C0C9447
:103BE000F82FCB352CE7D20711F18091D3060024B2
:103BF00082FF0394802DCC35DC4709F0A5CF0E94CD
:103C0000C110A2CF0E9440188FEF94E3ECE08150E6
:103C10009040E040E1F700C000000E94550E6FEFB9
:103C20007FEF80E090E00E940D310E94711880E0EB
:103C3000E6CFC8010E946206C82F95CF1C2F1F70C7
:103C4000C03110F01295107FD114B9F0111569F040
:103C500080E28D0F883010F0D11109C08091CA0622
:103C6000812B8093CA060E94D8108D2F40C080916E
:103C7000D406812B8093D406F6CF8D2F0E940D1889
:103C80001115E9F180E28D0F883010F0D11104C0D8
:103C9000812F0E94DE0606C010958091D4068123F4
:103CA0008093D4060E94D8102AC01C2F1F70C07F9A
:103CB000C03211F01295107FD11549F0D13009F4BE
:103CC0006BC0D11409F477C0C114C9F1CECF809173
:103CD000D30682FD30C0D11469F0111539F08091FE
:103CE000CA06812B8093CA060E94D81080E00E94E9
:103CF0009C1705C080E00E940D181111C9CF011555
:103D0000A9F08091D10680FD11C0F701158286953A
:103D1000869586950E940B06C7010E94A31B809181
:103D2000D1068695869586950E941B0660E0C701A0
:103D30000E942B098BCDD11499F0C11004C0812FA2
:103D40000E942A11DCCFF1E0CF12D9CF8091CB06AF
:103D5000912F9823191799F2812B8093CB06CFCFFF
:103D6000C110CDCF812F0E9434119091CB06812FAD
:103D70008923811529F0812F809589238093CB0693
:103D80008091CC06912F9823911509F4B8CF109506
:103D900018231093CC06B3CFD11429F026E0C21615
:103DA00008F0ADCFCCCF35E0C31608F0A8CF812FF7
:103DB0000E943411A4CFC114D1F3D93349F48FEF49
:103DC00097EEE3E081509040E040E1F700C0000052
:103DD0008D2F0E940D1893CF8C2F8695869583701A
:103DE000811569F0813009F08ACF8D2F9C2F937057
:103DF000D11002C080E090E00E94A10D80CF8D2FF5
:103E00009C2F9370D11002C080E090E00E947B0D47
:103E100076CF6D2D8D2F0E94CA1671CF8C2F837097
:103E2000811142C0D1102FC04D2F42954695477049
:103E3000440F440F2D2F2F7030E0042E02C0220FAC
:103E4000331F0A94E2F780E090E0D4FF09C08FE0CE
:103E500090E002C0880F991F4A95E2F780959095EF
:103E6000C695C695C370C230B1F0C33089F0409199
:103E7000CD065091CE06C13049F0822B932B84237E
:103E800095230E9401060E946A0D39CF242B352B01
:103E9000822B932BF6CF822B932B2091CD06309142
:103EA000CE0682279327EDCFD11491F1C0FFEBCF3F
:103EB0004D2F429546954770440F440F2D2F2F707C
:103EC00030E0042E02C0220F331F0A94E2F780E094
:103ED00090E0D4FF09C08FE090E002C0880F991FE6
:103EE0004A95E2F780959095C695C695C370C23005
:103EF000B9F0C33091F04091CF065091D006C13057
:103F000051F0822B932B842395230E940606BBCF6E
:103F1000823070F6B8CF242B352B822B932BF5CF24
:103F2000822B932B2091CF063091D00682279327A6
:103F3000ECCFCF70D11439F08C2F0E940B068D2F4F
:103F40000E942A11A0CF8D2F0E9434118C2F0E9425
:103F50001B0699CFD23FB1F170F4D03FC9F0D13FE9
:103F600091F0D11409F45EC0C11409F458C08D2F2A
:103F70000E949C1788CFD33F61F1D43F91F7909175
:103F8000D30692FD34C08C2F8F71D11401F31EC063
:103F9000D114A9F0F5E0CF1608F075CFCF7181E00C
:103FA00090E09C0102C0220F331FCA95E2F7E9019D
:103FB0008091CF069091D00682279D27A6CF36E02C
:103FC000C316EACF8C2F8F71D110C1CF0E940B0680
:103FD0005ACF80E090E0D11409F497CFCF7181E0FF
:103FE00090E002C0880F991FCA95E2F78ECFD114D6
:103FF00061F08C2F8F7192FFE9CF982F990F990F55
:10400000990F93609093D106E1CF81E00E949F06C3
:1040100082E0C81608F437CF0E949F0634CF8C2F59
:104020008F71D4CFC11479F0D93349F49FEFE7EE03
:10403000F3E09150E040F040E1F700C000008D2F28
:104040000E940D1820CF8C2F8F7181CFFE01E85177
:10405000FC47E730F10508F4E0CBC6312CE7D20786
:1040600009F0D5CC8091BE06811509F4C7CC85E353
:104070000E94FB0D14C0C631FCE7DF0709F0C0CC7D
:104080008091CA068A7A91E0811101C090E09093F4
:10409000BE06811509F4B0CC85E30E94C70D0E94CD
:1040A000D810C4CB80911507803178F48091140723
:1040B000811559F0E091D6062091D5063091100770
:1040C00040910F0757E02E1301C008956E2F70E046
:1040D0005E9FF0011124DF01A952B94F14968C9113
:1040E0001497811561F111968C911197831327C054
:1040F0008C91841324C015968C91159781111FC043
:1041000012968D919C91A0911107B09112078A1B74
:104110009B0B883C910598F4809115078F70806106
:1041200080931507E352F94F80818F7080618083FF
:104130008FE097E00E94A31B0E9495060895FB0163
:104140003196E770C0CFADE0B0E0E9EAF0E20C9460
:10415000982F8C0186E0F801DE01189601900D92EF
:104160008A95E1F7F801F580C4808FE0882E87E01A
:10417000982E70901307711020C0C114D9F0F1145B
:1041800009F41CC1C8010E945A09811509F416C11D
:1041900087E0F801D40101900D928A95E1F7F1E0F2
:1041A000CF1206C080910F07909110070E944B0913
:1041B0000E945220FF24F39454C0E080A280B38078
:1041C000D090140780911107909112079501281B38
:1041D000390BD11409F4BAC0283C310508F090C05D
:1041E000C11441F390911007C1808091150780316F
:1041F00008F058C0C91214C090910F079E1110C04A
:10420000F1104AC08F708061809315078FE097E0AE
:104210000E94A31B80911507F8018683F12C21C011
:10422000F1103AC040E06C2D8E2D0E94D50F40E079
:104230006C2D8E2D0E94D50FF82E8111EFCF888521
:1042400099850E944B09292F22952F70903470F484
:104250009F702230A0F09115B1F0F8019681903155
:1042600090F48F2D2D96EDE00C94B42F2A5F2F70D3
:10427000223068F0C8010E94A31BFD2CF2CF9115DB
:1042800011F0811571F3805E883058F3F3CF803FD1
:1042900040F3815F8330F9CF80911507816080936F
:1042A0001507BCCFC91207C090910F079E1103C01C
:1042B000F11409F46CC0C8010E945A09811509F46F
:1042C0007DC0F11409F47AC080911507803278F02E
:1042D00020910F07309110073A832983BC82AB826B
:1042E0007D821E828F83CE0101960E94A31B87E0F0
:1042F000F801AFE0B7E001900D928A95E1F758CF51
:1043000080911507803150F48FE097E00E94A31B45
:1043100087E0F40111928A95E9F780CFC11409F47E
:1043200049CF2091100791812913C5CF90910F0794
:104330009E11C1CFF110BFCF8683C8010E94A31B7D
:1043400087E0F40111928A95E9F734CF283C3105D2
:10435000F8F6C11409F42ECFF11481F190911007F1
:104360008181981321C080910F078E111DC080910B
:10437000150780FD10C0803170F08683807F803FFC
:1043800039F08681982F907F905F8F70892B86837C
:10439000C8010E94A31B87E0F801AFE0B7E00190DD
:1043A0000D928A95E1F706CFC8010E945A09811142
:1043B0009ECF80911507816080931507C8010E94E8
:1043C000A31BF8CEABE1B0E0E8EEF1E20C94A12F34
:1043D0004E8B5F8B688F798F8A8F192F9B8F9111EE
:1043E0001092D4061D8A86E0FE017696DE011F96A5
:1043F00001900D928A95E1F70A8D011539F00B8B2A
:104400001C8B61E0CE010F960E942B090B8B1C8B3D
:1044100087E0FE013F96DE01189601900D928A9585
:10442000E1F7CE0108960E94A320811128C02091B7
:10443000D5063091D60687E0FE013896DE0111964A
:1044400001900D928A95E1F78C858115C1F0822F3C
:1044500090E001968770992738171906D9F097E0F0
:10446000929FD0011124A952B94FFE0131960190BB
:104470000D929A95E1F78093D5060E94950617E074
:104480008091D6069091D506891312C06B96E4E010
:104490000C94BD2F0E9440181092D5061092D6069B
:1044A00087E0EFE0F7E0DF011D928A95E9F7E7CFBB
:1044B000189FC00111248952994F0E94A320811591
:1044C00029F38091D60690E0019687709927809312
:1044D000D606D6CFA6E0B0E0E0E7F2E20C94A12F3A
:1044E0000E94F3158C0180916C0690916D068017E7
:1044F000910779F019821A820E94F315BC01498153
:104500005A8180E090E00E94E22110936D060093B2
:104510006C062696E4E00C94BD2FA3E1B0E0E3E93D
:10452000F2E20C94962FFE013C9688E0DF011D928A
:104530008A95E9F780E8E82E81E0F82E8F013F01A7
:10454000AA24A394B12C2AE8822E21E0922EF7010E
:1045500081917F018F3F09F43EC0F894E82FE295E6
:10456000EF70F0E021A18F70A50102C0440F551F2C
:104570008A95E2F7CA01922F982B91A392A1809578
:10458000892382A3789400C0E4E8F1E031E0512C63
:1045900021912F3F79F0A22FA295AF70A05EB0E0DD
:1045A0008C9190E02F7002C0959587952A95E2F73F
:1045B00080FF88C080E0582A330F8E169F0641F78F
:1045C000F70182918F3F11F00E94880950EA5A95B5
:1045D000F1F7D8015C920F5F1F4FB4E8EB16B1E022
:1045E000FB0609F0B4CF48E050E0B30183ED93E05F
:1045F0000E94B5306C01892B41F088E0F301A3EDF6
:10460000B3E001900D928A95E1F70091DC0310E090
:104610000F511C4FC114D10409F456C081E080939E
:10462000FD010E94F3159093FC018093FB018091A2
:104630006A06FE0131967F01811509F49CC084E071
:10464000DF011D928A95E9F78091FE018A3008F01A
:104650005DC048E252E1B701C8010E948710811590
:1046600009F477C04EED51E1B701C8010E948710EF
:10467000811509F46EC04BE351E1B701C8010E94F6
:104680008710811509F465C04CEF51E1B701C801ED
:104690000E948710811509F45CC01092FE01809180
:1046A000DB0390E044E050E0B7018F519C4F0E9443
:1046B000B53021E02093FA01892BE9F56396EFE00C
:1046C0000C94B22F832F77CF8091FD01811509F4CF
:1046D000AECF8091FB019091FC010E94371B0597A2
:1046E00008F4A5CF44E050E063ED73E0C8010E94F8
:1046F000B530892B41F084E0E3EDF3E0D80101907F
:104700000D928A95E1F71092FD0191CF8091F80109
:104710009091F9010E94371B843F914008F099CF96
:104720008091FA01811551F284E0F70111928A9586
:10473000E9F71092FA01E091DB03F0E0EF51FC4F52
:1047400089819A81AB81BC8180839183A283B38369
:10475000B5CF8091FE018F3F39F40E94F3159093FD
:10476000F9018093F801DCCF8F5F8093FE018A30DE
:1047700008F495CFF2CFC090DB03D12C96012F51D6
:104780003C4F6901F80180819181A281B3818093BE
:104790004F0690935006A0935106B09352068FE4B3
:1047A00096E00E94310F80934E06809153069091BF
:1047B0005406A0915506B0915606F6018083918368
:1047C000A283B3838090570690905806A090590614
:1047D000B0905A068091F4019091F501A091F601F4
:1047E000B091F70188169906AA06BB06B1F080922F
:1047F000F4019092F501A092F601B092F7010E94A7
:10480000270E861A970AA80AB90A8092660690921D
:104810006706A0926806B09269068BE0EBE5F6E0C9
:10482000D70101900D928A95E1F7F0905C06E09037
:104830005D06D0905E0600916406109165061092A8
:104840006506111509F43ACF10FF0DC089819091CA
:10485000C20680FF1CC091609093C20660E08695FE
:1048600086950E942C1611FF06C020E04D2D6E2D5E
:104870008F2D0E94F11312FF04C00115A9F00E94B0
:10488000101613FF1BCF81E08093F80317CF9E7F94
:104890009093C2060E94F30C8091C10681608093C0
:1048A000C1060E94490ADFCF0E94F30CEACFCDB7C0
:1048B000DEB76C970FB6F894DEBF0FBECDBF85B7DD
:1048C000806885BF85B7806885BF84B7877F84BFD0
:1048D0000FB6F894A895809160008861809360007D
:1048E000109260000FBE80E890E00FB6F8948093BD
:1048F0006100909361000FBE86E899E09093CB0130
:104900008093CA010E94120F0E947A0F8091E200E8
:1049100084608093E20078948091E003811599F09F
:104920008091E9001091EC008F7017951127179571
:10493000182B1092E9008091E80083FD0E948718EF
:104940001F701093E90082E084BD93E095BD9AEF5B
:1049500097BD80936E0010926606109267061092C3
:104960006806109269068091D80080618093D80013
:104970002AE12A95F1F700C08091D900182F117013
:1049800080FD04C00E94120F1092E00310936A068B
:1049900010936B0610931701111509F4D4C01092EF
:1049A00012018BE1809313010E941D2E809117014B
:1049B0008091170191E08927880F880F8093DC038D
:1049C00094E0981B9093DB0384E90E94880986E6B3
:1049D0000E94880987E90E94880986EC0E9488095C
:1049E00004E811E0D8018D918D018F3F11F00E94F4
:1049F0008809B1E00A381B07A9F788E0E1EEF3E087
:104A0000DF01482E1D924A94E9F7E3EDF3E0DF0160
:104A10001D928A95E9F780E090E00E94D930853EAA
:104A20009E4F09F461C065EE7EEF80E090E00E9449
:104A30000D3160E082E090E00E94EF3081E090E094
:104A40009093CE068093CD0661E083E090E00E94D3
:104A5000EF3060E074E184E090E00E940D3160E0AE
:104A600086E090E00E94EF3060E087E090E00E94F6
:104A7000EF3040E050E0BA0188E090E00E94013160
:104A800060E083E290E00E94EF3060E08CE090E034
:104A90000E94EF3060E08DE090E00E94EF301982DC
:104AA0001A821B821C821D821E821F82188648E089
:104AB00050E067E170E0CE0101960E94DF3040E0F7
:104AC00050E0BA018FE190E00E94013140E050E0F7
:104AD000BA018FE090E00E94013140E050E0BA015D
:104AE00083E190E00E94013182E090E00E94CB30AF
:104AF0008093E90384E090E00E94D9309093D3063C
:104B00008093D2060E948D22EFEFF6E721E0E1507C
:104B1000F0402040E1F700C000000E948D22E091AB
:104B20006B0611E0E127EE0FEE0FF0E0EF51FC4FC6
:104B3000808181FF0EC06FEF7FEF80E090E00E94E8
:104B40000D310E94550E8BE1809312018093130169
:104B50002DCF83E090E00E94CB3090E00E940106D0
:104B600080916A068127880F8093250680E88093CC
:104B7000FD030E94A22C6BE070E087E799E00E94A1
:104B8000C614811509F43FC08091250665E070E0E8
:104B900081FD42C182E799E00E94C614811599F116
:104BA0006DE070E080E699E00E94C614811559F12D
:104BB0000E94270EDC01CB01805A9541AF4FBF4FB9
:104BC0008093290690932A06A0932B06B0932C0677
:104BD000E5E2F4E080E092E0DF019C011D922150CB
:104BE0003040E1F7F093FC03E093FB038FEF9FEF7E
:104BF000909328068093270681E080933006809367
:104C00002D06109226068091DD03811195C088E063
:104C100090E00E94D330698F7A8F8B8F9C8F83E2D4
:104C200090E00E94CB30282F30E040E050E060E080
:104C300070E080E090E000E20E940D30698C7A8C98
:104C40008B8C9C8C23013401812C912C540149863E
:104C50005A866B867C868D869E86AF86B88A798CCE
:104C60002729352946298C8458292093C206309358
:104C7000C3064093C4065093C5066093C60670935E
:104C8000C7068093C8069093C9063091C106336069
:104C90003093C1062430F0F525E02093C20610922F
:104CA000C3062FEF2093C40628E72093C506109271
:104CB000C60625E030E04FEF58E760E00E9497130A
:104CC00088E090E00E94D3306B017C0183E290E0A9
:104CD0000E94CB30282F30E040E050E060E070E0F0
:104CE00080E090E00E940D30260137012C29352903
:104CF000462957292093C2063093C3064093C40621
:104D00005093C5066093C6067093C7068093C80685
:104D10009093C9060E94340A0E94F30C0E94150D5C
:104D20008091C20680FF05C060E0869586950E944E
:104D30002C1681E08093DD0380916A06811102C008
:104D40000E94202E88E191E090938F0680938E063A
:104D5000CE010196EAE04E2E512C612C712C8D8BE8
:104D60009E8B8091E003853049F48091E00385308B
:104D700009F455C00E9440180E946A0D0E948D22BD
:104D80000AEE13E061EEE62E63E0F62ED701F8019D
:104D900091918D9143E0E23FF40709F494C0981794
:104DA000B9F380906A06D12CD701CD907D01F8012E
:104DB00091908F019C1439F19C24B12CAA24A394C6
:104DC000892D8A218115C1F08114B1F0B982DA826E
:104DD0000E94F3159C838B83F1E0FD8391E08C2D81
:104DE0008A21811101C090E09E8349815A816B81A3
:104DF0007C818D810E94E221B394AA0C26E0B2123C
:104E0000DFCFF801C292D39438E0D312CDCF0E9405
:104E1000330EDD24D3945CC08DE699E0BDCE809145
:104E2000E003843039F10E94D3141092DE0378E15C
:104E3000A72EB12C20E40FB6F894A895A09260009C
:104E40000FBE2093600083B7817F846083BF83B7E8
:104E5000816083BF7894889583B78E7F83BF0FB6B8
:104E6000F894A8958091600088618093600010920A
:104E700060000FBE8091DF03811509F476CF0E9498
:104E80008D22E1EEF3E08191811105C033E0E93E2E
:104E9000F307C9F76ACF80E189BD82E189BD09B412
:104EA00000FEFDCF8091D8008F7D8093D800809147
:104EB000E00082608093E0008091E00081FDFCCF03
:104EC0000E94401852CF98136CCF0E946A22D12CB6
:104ED0008091C006811509F470C08091BF06E091F1
:104EE000C206E695E695E81BE093F703853109F4E1
:104EF00055C208F0FFC1893009F444C208F0EBC183
:104F0000823009F429C2863009F431C200ED17E07D
:104F100051EAE52E59E0F52E8091F803811561F0F4
:104F20001092F8030E94FF159093F6038093F50307
:104F30001092FA031092F9030E94FF151C01809150
:104F4000F5039091F6039101281B390B2F3F3F4742
:104F5000A0F52091F4032115B9F01092F4032091EB
:104F6000F2033091F303A101421B530B4F3F5F4704
:104F700058F4205D3A483093F3032093F2032091D4
:104F8000C10628602093C106A090F903B090FA03EF
:104F9000800F911F9093F6038093F50385EF93E0C4
:104FA000F70109958091F9039091FA03892B29F46F
:104FB000AB2819F081E08093F403809130068115CD
:104FC00009F4AAC080912E0690912F060E94371BEB
:104FD000C29708F481C00E94F31590932F06809326
:104FE0002E0685E294E09093FC038093FB0380916E
:104FF0006A06811509F41EC280E09AE00E94B81585
:105000004091CF063091D006832F90E028E03111F7
:1050100003C020E0842F932FAC0174E05695479590
:105020007A95E1F74115510511F02C5FCA01AC01E9
:1050300056954795569547954115510511F02E5FA8
:10504000CA0196958795820F823009F4BAC108F09B
:10505000B0C18111B3C188EF99E00E94C61580915B
:10506000BC06805D0E9409158DED99E00E94B8157F
:105070008091BB06805D0E94091589ED99E00E9430
:10508000B8158090B9069090BA068091220190914F
:1050900023018816990609F09AC180910404803290
:1050A00009F095C1EEEFF3E08F0181918032E1F3D9
:1050B000F80101900020E9F79F01215031097901A1
:1050C0000E151F0508F4B0C187ED99E00E94B815D0
:1050D000809154010E94091580912706909128061D
:1050E000892B09F0ACC180912D068115A9F00E9491
:1050F000270E0091290610912A0620912B06309147
:105100002C06601B710B820B930B6F3F7F4F8F4FF1
:105110009F4710F40E94D314D1100E94E51486E03A
:10512000E3EBF6E0AD89BE8901900D928A95E1F737
:10513000C090B406F090B5061091B606E090B706A0
:105140000091B8061092B5061092B6061092B706F6
:105150001092B806812F8F29811509F441C08091E2
:105160003306909134060E94371B898B9A8B80916D
:10517000B106A989BA89811509F444C2559780F10D
:105180008F3F19F08F5F8093B106F11459F00E94A0
:10519000250D91E01F140CF09FEF899F802D1124A5
:1051A0008093B506111559F00E94250D91E0111656
:1051B0000CF09FEF899F802D11248093B60680917B
:1051C000B506811569F0D090B606D11449F00E9459
:1051D000170D8093B5068D2D0E94170D8093B6068E
:1051E000802F8E29811509F442C08091310690915B
:1051F00032060E94371B8B8B9C8B8091B0068115E9
:1052000009F4F9C1EB89FC89E135F10580F18F3FA3
:1052100019F08F5F8093B006E11459F00E94450D9C
:1052200091E01E140CF09FEF899F802D1124809334
:10523000B706011559F00E94450D91E010160CF0CB
:105240009FEF899F802D11248093B8068091B70627
:10525000811569F0E090B806E11449F00E94170D3D
:105260008093B7068E2D0E94170D8093B80680910B
:10527000B406C81219C08091B506811511F08F11BE
:1052800013C02091B606211511F012130DC0909194
:10529000B806911511F0091307C03091B706311106
:1052A00003C0822B892B81110E94A21686E0ED8912
:1052B000FE89A3EBB6E001900D928A95E1F70E947A
:1052C0006A0D90913506891709F44BCD8093350608
:1052D0000E94270E46CD8F3009F018CEE695F0E0FB
:1052E000E657F64FE4910E2F10E09DEAE92E9AE082
:1052F000F92E12CE04EF11E0FAE3EF2EFCE0FF2EC0
:10530000843209F409CEA8F408E210E0EFEAEE2EA8
:10531000EBE0FE2E883109F4FFCD833209F0F6CDA3
:10532000E5E8F9E005911591B1E9EB2EBCE0FB2E23
:10533000F3CD853209F0EACD8E2F63E00E94CA2FAB
:10534000E92FF0E0EE57F64FE4910E2F10E0AFECAE
:10535000EA2EA2E1FA2EE0CDF0E0ED56F64FE49110
:105360000E2F10E04AEFE42E4CE0F42ED5CDF0E005
:10537000E057F64FE4910E2F10E033EEE32E3CE0C1
:10538000F32ECACDE695F0E0E357F64FE4910E2FE9
:1053900010E022E7E22E2AE0F22EBECDF0E0E9573F
:1053A000F64FE4910E2F10E08FE2E82E8BE0F82EFE
:1053B000B3CD833049F08FED99E04FCE82EF99E085
:1053C0004CCE8CEE99E049CE85EE99E046CE909297
:1053D00023018092220180E280930404A12CB12C4D
:1053E0001092030433E0E32E34E0F32E00E010E0EB
:1053F000C501B401A30192010E945531605D603383
:1054000041F40115110529F089288A288B2809F40F
:1054100060E2D7016E937D0149015A010F5F1F4F72
:105420000530110529F73ECED8018D918D010E94DE
:10543000091546CE87E999E00E94B8154DCE8091B6
:105440003006811509F44FCE8091260681114BCE8E
:105450000E94E51420912706309128062115310578
:1054600009F441CE10E041E050E0812F90E04A0184
:10547000012E02C0880C991C0A94E2F7B401622341
:105480007323672B11F41F5FF0CF2091250620FFB7
:105490009FC0912F990F990F990F37E0390F80E036
:1054A00023E09093260180932901309327012093D4
:1054B0002A0124E630E047E050E064E271E088E74A
:1054C0000E94D82C892B09F00ECEB0E21B9FA001C0
:1054D00011248091250680FF87C0E5E0F4E080E29A
:1054E000DF011D928A95E9F7EEE8F1E0FA8FE98F86
:1054F0006AE871E087E0E82EBB24B394E98DFA8D69
:10550000A191FA8FE98FFB018191BF01840F952F43
:10551000911D9C012B5D3B4F388F2F8BEA2FF0E0C4
:10552000EB5FFB4F80E090E0CE2CC81AFB2C082EDE
:1055300001C0FF0C0A94EAF7AF89B88DBA87A98732
:1055400000E0A985BA851D91BA87A9871F212C2D56
:10555000201B277030E0B12F022E01C0BB0F0A9430
:10556000EAF73195219531092770332701C0169547
:105570002A95EAF71B2B2081122B10830F5F08302E
:1055800001F7019631968830910571F6E2E9F1E074
:10559000298D3A8DE217F30709F0B0CF04E610E049
:1055A00020E230E045E054E060E488E70E94722D9C
:1055B000892B09F098CD8094909480912706909142
:1055C00028068821992190932806809327068BCD61
:1055D0009695879596958795282F912F9295990F57
:1055E00090763FE1390F5DCF4B5D5B4F04E610E0F5
:1055F00020E230E0D9CF2B893C892B30310508F0EF
:1056000008CE35CE1B9708F0BDCDEACD78941F9219
:105610001FB61F9211248F939F93AF93BF938091D6
:105620004A0690914B06A0914C06B0914D0601960A
:10563000A11DB11D80934A0690934B06A0934C0682
:10564000B0934D06BF91AF919F918F911F901FBE58
:105650001F9018951F920F920FB60F9211242F933F
:105660003F934F935F936F937F938F939F93AF93EA
:10567000BF93EF93FF938091E10082FF09C0809177
:10568000E20082FF05C08091E1008B7F8093E10002
:105690008091DA0080FF24C08091D80080FF20C074
:1056A0008091DA008E7F8093DA008091D90080FFAC
:1056B0009BC080E189BD82E189BD09B400FEFDCFB8
:1056C00081E08093E00380910A02811109C00E9469
:1056D000120F0E947A0F8091E20084608093E200B2
:1056E0008091E10080FF17C08091E20080FF13C02D
:1056F0008091E2008E7F8093E2008091E2008061E1
:105700008093E2008091D80080628093D80019BC19
:1057100085E08093E0038091E10084FF29C08091BF
:10572000E20084FF25C080E189BD82E189BD09B422
:1057300000FEFDCF8091D8008F7D8093D8008091AE
:10574000E1008F7E8093E1008091E2008F7E809364
:10575000E2008091E20081608093E2008091090282
:10576000811509F447C084E08093E0038091E00351
:105770008091E10083FF27C08091E20083FF23C076
:105780008091E100877F8093E10082E08093E003D5
:10579000109209028091E1008E7F8093E100809158
:1057A000E2008E7F8093E2008091E200806180932E
:1057B000E20042E060E080E00E944A0F8091F00049
:1057C00088608093F000FF91EF91BF91AF919F911E
:1057D0008F917F916F915F914F913F912F910F909A
:1057E0000FBE0F901F90189519BC1092E0031092F5
:1057F0000A0276CF8091E30087FF02C083E0B4CF36
:1058000081E0B2CF1F920F920FB60F921124EF9248
:10581000FF920F931F932F933F934F935F936F9339
:105820007F938F939F93AF93BF93CF93EF93FF9308
:1058300009EE10E0F8018081C091EC008F70C795EF
:10584000CC27C795C82B108280EFE82EF12CF701EA
:105850008081877F808378940E948718F801108266
:10586000F701808188608083CF70F801C083FF9149
:10587000EF91CF91BF91AF919F918F917F916F9158
:105880005F914F913F912F911F910F91FF90EF905A
:105890000F900FBE0F901F901895FF920F931F93BC
:1058A000CF93DF93182FEB011092BC0084EA809312
:1058B000BC000E94F315082FF92E8091BC0087FFD1
:1058C00028C08091B900887F883029F08091B90084
:1058D000887F8031A1F51093BB0084E88093BC00E1
:1058E0000E94F315182F092F8091BC0087FF1FC05D
:1058F0002091B900287F80E090E0283199F081E084
:1059000090E0203411F480E090E091958195910928
:1059100009C0802F9F2D0E94371BC817D90768F632
:105920008EEF9FEFCDB7DEB7E5E00C94BC2F812F53
:10593000902F0E94371BC817D907B0F6F1CF8FEF11
:105940009FEFF0CF1092B9008CE08093B8000895DB
:105950000F931F93CF93DF93EB018093BB0084E8F9
:105960008093BC000E94F315182F092F8091BC0072
:1059700087FF11C02091B900287F81E090E0283294
:1059800011F480E090E0919581959109DF91CF919C
:105990001F910F910895CF3FDC0741F3812F902F86
:1059A0000E94371BC817D90708F78EEF9FEFEECF7D
:1059B000A0E0B0E0EEEDFCE20C94982F782EB62E2D
:1059C000A72E6A01E9010E94F3154C01C431D105EB
:1059D00028F1CF3FDC0731F1CE0164E170E00E9495
:1059E0007F2FF62EE72E6F2D7E2D872D0E944D2CBA
:1059F0008C01892BD1F4EB2CFA2CCE0CDF1CEC148F
:105A0000FD0419F001151105D1F084E98093BC0063
:105A1000C801CDB7DEB7EDE00C94B42FFF24F394AA
:105A2000E12CE1CF85E0F82EFBCFCF3FDC07D9F2A8
:105A3000C4010E94371BC817D907A8F6DCCFBE01E6
:105A4000F70181917F010E94A82C8C01D8CFA0E0A2
:105A5000B0E0EDE2FDE20C94982F782EB62EA72E42
:105A60006A0189010E94F3154C010431110518F1F6
:105A70000F3F100719F1C80164E170E00E947F2F09
:105A8000EB01BE01872D0E944D2C7C01892BC1F4B6
:105A9000CB2DDA2DCC0EDD1ECC15DD0519F0E11471
:105AA000F104C1F084E98093BC00C701CDB7DEB733
:105AB000EDE00C94B42FC1E0D0E0E3CFC5E0FCCF23
:105AC0000F3F1007F1F2C4010E94371B0817190796
:105AD000C0F6DECFFE018491B8010E94A82C7C01A3
